:100000000C9434000C9461000C948A000C9446000B
:100010000C9446000C9446000C9446000C94460048
:100020000C9446000C9446000C9446000C94460038
:100030000C9446000C9446000C9446000C94460028
:100040000C9446000C9446000C9446000C94460018
:100050000C9446000C9446000C9446000C94460008
:100060000C9446000C94460011241FBECFEFD8E03C
:10007000DEBFCDBF21E0A0E0B1E001C01D92A23003
:10008000B207E1F70E94A8000C94B4010C940000A0
:100090008AB18B7F8AB98BB184608BB98AB1877F33
:1000A0008AB98BB188608BB9E9E6F0E08081826023
:1000B00080838081886080838DB383608DBB7894DA
:1000C00008951F920F920FB60F9211242F938F93C2
:1000D0009F932FEF80E792E0215080409040E1F71E
:1000E00000C000004A990EC08091010190E0019685
:1000F00083709078992324F401978C6F9F6F0196F9
:10010000809301019F918F912F910F900FBE0F90BF
:100110001F9018951F920F920FB60F9211242F93D4
:100120008F939F932FEF80E792E021508040904083
:10013000E1F700C000004B9903C081E0809300010B
:100140009F918F912F910F900FBE0F901F90189538
:10015000CF93DF9300D0CDB7DEB70E9448000E9456
:100160004B0181E090E09A8389830E940001809195
:100170000101813051F028F0823059F08330D1F004
:1001800029C080E00E94520125C08FEF0E945201D9
:1001900021C0CE0101960E94570189810E9452011F
:1001A0002FEF81EE94E0215080409040E1F700C0B5
:1001B000000010C0CE0101960E946D0189810E944D
:1001C00052012FEF81EE94E0215080409040E1F702
:1001D00000C0000080910001882349F284EB0E9456
:1001E00010012FEF83ED90E3215080409040E1F724
:1001F00000C0000080E00E94100110920001B7CF03
:100200008AB180628AB982E8809380008AE1809313
:1002100081008FE39CE99093870080938600089586
:10022000282F30E0A0EDB7E00E94A50124EB30E0DC
:1002300040E050E00E9483012053384F3093890002
:1002400020938800089597E01AC0282F30E0092EE7
:1002500002C0359527950A94E2F720FF04C025B126
:10026000246025B903C025B12B7F25B925B12860AD
:1002700025B9000025B1277F25B9000091509923A9
:1002800024F7089585B1806285B9000085B18F7D1E
:1002900085B90000089584B18C6284B985B1837DED
:1002A00085B908950E9423010E9442010895CF93C9
:1002B000DF93EC0188810E94520183EC99E0019761
:1002C000F1F700C000008881880F8883811102C087
:1002D00081E08883DF91CF910895CF93DF93EC0184
:1002E00088810E94520187EA91E60197F1F700C0E8
:1002F0000000888186958883811102C080E8888308
:10030000DF91CF910895A1E21A2EAA1BBB1BFD011C
:100310000DC0AA1FBB1FEE1FFF1FA217B307E407E4
:10032000F50720F0A21BB30BE40BF50B661F771F3C
:10033000881F991F1A9469F760957095809590951C
:100340009B01AC01BD01CF010895A29FB001B39FF5
:10035000C001A39F700D811D1124911DB29F700DCE
:0C036000811D1124911D0895F894FFCF19
:00000001FF
