S0180000417175617269756D5F436F6E74726F6C2E7372656387
S11300000C9434000C9451000C9451000C94510045
S11300100C9451000C9451000C9451000C94510018
S11300200C9451000C9451000C9451000C94510008
S11300300C9451000C9451000C9451000C945100F8
S11300400C9451000C9451000C9451000C945100E8
S11300500C9451000C9451000C9451000C945100D8
S11300600C9451000C94510011241FBECFEFD8E022
S1130070DEBFCDBF12E0A0E0B1E0ECE4F2E102C0EB
S113008005900D92A238B107D9F722E0A2E8B2E0B8
S113009001C01D92AE38B207E1F70E94C7020C946A
S11300A024090C9400004AB121E030E0B90102C0F7
S11300B0660F771F8A95E2F7CB01462B4AB99BB1AD
S11300C0892B8BB90895CF9380E091E00E94D005ED
S11300D08AB184608AB98BB18B7F8BB98AE191E054
S11300E00E94D0058FEC97E00197F1F700C0000063
S11300F08AB18B7F8AB98DE291E00E94D00587E1B5
S113010091E00197F1F700C000004A9906C08AE324
S113011091E00E94D005C1E005C085E591E00E9410
S1130120D005C0E08FEC97E00197F1F700C0000024
S11301301F92CF9386E791E09F938F930E94D503FC
S11301400F900F900F900F908C2FCF9108959AB12C
S113015094609AB99BB19B7F9BB99AE09A95F1F709
S113016000C0882319F08AB18B7F8AB98FEE90E0A2
S11301700197F1F700C000008AB18B7F8AB9089516
S11301808AB184608AB98BB18B7F8BB98AE08A95F6
S1130190F1F700C08AB18B7F8AB990E59A95F1F79F
S11301A04A9902C080E001C081E090EF9A95F1F78E
S11301B00895CF93DF93D82FC0E00CC081E090E086
S11301C00C2E02C0880F991F0A94E2F78D230E9417
S11301D0A700CF5FC83090F3DF91CF910895CF93FC
S11301E0DF93C0E0D0E00EC00E94C000882349F035
S11301F081E090E00C2E02C0880F991F0A94E2F768
S1130200D82BCF5FC83080F38D2FDF91CF91089525
S11302100E9463008CEC0E94D90084E40E94D900FF
S11302202FEF8EE994E2215080409040E1F700C026
S113023000000895CF930E9463008CEC0E94D900C3
S11302408EEB0E94D9000E94EF00C82F0E94EF009D
S1130250682F70E0762F66276C2B77238CF47195CA
S113026061957109072E000C880B990B0E949F045D
S113027020E030E040E85DE30E94300590580CC077
S1130280072E000C880B990B0E949F0420E030E09D
S113029040E85DE30E943005CF91089588E480939F
S11302A0B80084E08093BC00089594EA9093BC0065
S11302B09091BC009923E4F79091B900987F98300D
S11302C029F09091B900987F903189F4880F809338
S11302D0BB0084E88093BC008091BC008823E4F7D1
S11302E08091B900887F883121F082E0089581E00F
S11302F0089580E008958093BB0084E88093BC0057
S11303008091BC008823E4F78091B900887F88320B
S113031011F081E0089580E0089584E98093BC00A1
S11303208091BC0084FDFCCF0895CF93DF93C82F48
S1130330C07FDC2FD86087E20E9455018C2F8C602F
S11303400E947B018AE18A95F1F700C08D2F0E94FB
S11303507B010E948D0187EC90E00197F1F700C0CA
S11303600000DF91CF9108951F93CF93DF93182F4F
S1130370C62F87E20E945501D1E0C11101C0D0E02F
S1130380C12FC07FC860CD2BC4608C2F0E947B011D
S11303908C2F897F0E947B0120E1129FC0011124D0
S11303A08860D82BD4608D2F0E947B018D2F8B7F8A
S11303B00E947B010E948D01DF91CF911F910895CE
S11303C061E00E94B4010895CF93DF93EC0103C070
S11303D021960E94E00188818111FACFDF91CF91AB
S11303E00895813011F080E001C080E4860F60E060
S11303F080680E94B40108958F929F92AF92BF9239
S1130400EF92FF920F931F93CF93DF93CDB7DEB795
S1130410A1970FB6F894DEBF0FBECDBF8C0160E08C
S113042080E00E94F101F80180809180A280B38075
S1130430C501B4010E946E04F62E70E080E090E0E5
S11304400E949F049B01AC01C501B4010E940104F8
S113045020E030E040E251E40E9430050E946E0446
S11304601F926F931F92FF928EE991E09F938F9357
S11304701F9280E18F93AE014F5F5F4F7A015F93CC
S11304804F930E940006C7010E94E40160E081E0EE
S11304900E94F101F801258184810FB6F894DEBF32
S11304A00FBECDBF882319F086E991E002C08AE926
S11304B091E01F922F939F938F938CEA91E09F93E7
S11304C08F931F9281E18F938E010F5E1F4F1F93B5
S11304D00F930E940006C8010E94E4010FB6F8942D
S11304E0DEBF0FBECDBFA1960FB6F894DEBF0FBE20
S11304F0CDBFDF91CF911F910F91FF90EF90BF90EF
S1130500AF909F908F90089560E081E00E94B401C5
S11305108FE19EE40197F1F700C0000008950E9466
S11305204E012FEF81EE94E0215080409040E1F79E
S113053000C0000080E30E9495018FEC97E00197D2
S1130540F1F700C0000080E30E9495018FEC97E072
S11305500197F1F700C0000080E30E9495018FE845
S113056091E00197F1F700C0000080E20E9495013C
S113057060E088E20E94B40160E08CE00E94B40173
S11305800E94840260E086E00E94B401089587E638
S113059090E00E94AD038EEB91E00E94D00583EDC4
S11305A091E00E94D0050E944E0182E00E94530017
S11305B00E948F020E9425030E946300882349F150
S11305C00E9408010E941A01C2E8D2E0688379837C
S11305D08A839B83AE010E946403CE010E94FC01C6
S11305E088E192E00E94D005888199812A813B812B
S11305F03F932F939F938F9389E292E09F938F93DE
S11306000E94D5030F900F900F900F900F900F90B2
S113061012C08DE392E00E94D0050E94840260E043
S113062080E00E94F1018EE492E00E94E4018BE5F7
S113063092E00E94D0052FEF87EA91E62150804096
S11306409040E1F700C00000B7CF8AB1806B8AB94F
S113065084B1816084B983E084BD88E085BD89EF7D
S113066087BD18BC0895482F853608F044E687B541
S113067090E00196489F9001499F300D11243695D2
S1130680279536952795ABE7B4E10E94C105969569
S1130690879588BD442361F084B5806284BD8BE076
S11306A085BD8BB180688BB98BB18F7E8BB9089572
S11306B084B58F7D84BD88E085BD8BB180618BB9A5
S11306C08BB18F778BB90895CF92DF92EF92FF921F
S11306D00F931F93CF936B017C018A0120E030E0DC
S11306E048EE51E40E942B058823B4F420E030E066
S11306F040EE51E4C701B6010E942B05882374F42F
S113070020E030E048ED51E4C701B6010E942B051A
S1130710882334F0CEE105C0C4E603C0CBE401C0B5
S1130720C0E08C2F0E943303F801C58381E0C1111E
S113073001C080E0F8018483CC2321F085B181607D
S113074085B903C085B18E7F85B9CF911F910F9173
S1130750FF90EF90DF90CF9008959093C500809321
S1130760C40088E18093C10086E08093C2000895AC
S11307709091C00095FFFCCF8093C60008950F931D
S11307801F93CF93DF938C01C0E0D0E003C00E949D
S1130790B8032196F801EC0FFD1F80818111F7CF7A
S11307A0DF91CF911F910F9108950F931F93CF93D2
S11307B0DF93CDB7DEB7C058D1090FB6F894DEBFCA
S11307C00FBECDBF9E0129573F4FF9014191519171
S11307D09F0160E870E0CE0101960E9430068C0112
S11307E0CE0101960E94BF03C801C058DF4F0FB667
S11307F0F894DEBF0FBECDBFDF91CF911F910F9153
S113080008955058BB27AA270E9419040C94F10498
S11308100E94E30438F00E94EA0420F039F49F3F78
S113082019F426F40C94E0040EF4E095E7FB0C9420
S1130830DA04E92F0E94020558F3BA176207730716
S11308408407950720F079F4A6F50C9424050EF49A
S1130850E0950B2EBA2FA02D0B01B90190010C01CC
S1130860CA01A0011124FF27591B99F0593F50F4E4
S1130870503E68F11A16F040A22F232F342F44273C
S1130880585FF3CF469537952795A795F040539534
S1130890C9F77EF41F16BA0B620B730B840BBAF004
S11308A09150A1F0FF0FBB1F661F771F881FC2F76F
S11308B00EC0BA0F621F731F841F48F48795779583
S11308C06795B795F7959E3F08F0B0CF9395880F3D
S11308D008F09927EE0F9795879508950E940A05C9
S11308E088F09F5798F0B92F9927B751B0F0E1F0ED
S11308F0660F771F881F991F1AF0BA95C9F714C09D
S1130900B13091F00E942405B1E008950C942405BF
S1130910672F782F8827B85F39F0B93FCCF38695D5
S113092077956795B395D9F73EF490958095709532
S113093061957F4F8F4F9F4F0895E89409C097FBAF
S11309403EF490958095709561957F4F8F4F9F4FA2
S11309509923A9F0F92F96E9BB279395F6958795E6
S113096077956795B795F111F8CFFAF4BB0F11F4A9
S113097060FF1BC06F5F7F4F8F4F9F4F16C0882350
S113098011F096E911C0772321F09EE8872F762F86
S113099005C0662371F096E8862F70E060E02AF0C7
S11309A09A95660F771F881FDAF7880F96958795B3
S11309B097F9089597F99F6780E870E060E00895DB
S11309C09FEF80EC089500240A9416161706180663
S11309D00906089500240A9412161306140605063F
S11309E00895092E0394000C11F4882352F0BB0FD0
S11309F040F4BF2B11F460FF04C06F5F7F4F8F4F33
S1130A009F4F089557FD9058440F551F59F05F3F6D
S1130A1071F04795880F97FB991F61F09F3F79F01C
S1130A2087950895121613061406551FF2CF46959E
S1130A30F1DF08C0161617061806991FF1CF869520
S1130A407105610508940895E894BB276627772704
S1130A50CB0197F908950E949D0508F48FEF08953E
S1130A600E9443050C94F1040E94E30438F00E94B0
S1130A70EA0420F0952311F00C94DA040C94E004B9
S1130A8011240C9425050E94020570F3959FC1F36F
S1130A90950F50E0551F629FF001729FBB27F00D28
S1130AA0B11D639FAA27F00DB11DAA1F649F66277D
S1130AB0B00DA11D661F829F2227B00DA11D621FCC
S1130AC0739FB00DA11D621F839FA00D611D221F86
S1130AD0749F3327A00D611D231F849F600D211D6A
S1130AE0822F762F6A2F11249F5750409AF0F1F0ED
S1130AF088234AF0EE0FFF1FBB1F661F771F881F56
S1130B0091505040A9F79E3F510580F00C94DA04AF
S1130B100C9425055F3FE4F3983ED4F386957795CE
S1130B206795B795F795E7959F5FC1F7FE2B880FFB
S1130B30911D9695879597F90895990F0008550F7B
S1130B40AA0BE0E8FEEF16161706E807F907C0F04F
S1130B5012161306E407F50798F0621B730B840B57
S1130B60950B39F40A2661F0232B242B252B21F431
S1130B7008950A2609F4A140A6958FEF811D811DD1
S1130B800895A29FB001B39FC001A39F700D811D62
S1130B901124911DB29F700D811D1124911D089582
S1130BA00F931F93CF93DF93E0918A02F0918B020E
S1130BB0238121FF1BC08C01D0E0C0E0F8018191AA
S1130BC08F0160918A0270918B02DB011896ED917E
S1130BD0FC911997882331F00995892B79F3DFEF7C
S1130BE0CFEFECCF8AE00995892B19F08FEF9FEFB7
S1130BF002C08D2F9C2FDF91CF911F910F910895EB
S1130C00AEE0B0E0E6E0F6E00C94FB080D891E8946
S1130C108F89988D26E02C831A83098397FF02C05D
S1130C2080E090E801979E838D83AE01455E5F4F1F
S1130C30698D7A8DCE0101960E945C064D815E819C
S1130C4057FD0AC02F813885421753070CF49A01C7
S1130C50F801E20FF31F10822E96E4E00C941709BA
S1130C60AEE0B0E0E6E3F6E00C94FB088C01FA0198
S1130C7086E08C831A83098377FF02C060E070E802
S1130C80CB0101979E838D83A901BF01CE010196FB
S1130C900E945C064D815E8157FD0AC02F81388514
S1130CA0421753070CF49A01F801E20FF31F108264
S1130CB02E96E4E00C941709ABE0B0E0E2E6F6E02F
S1130CC00C94ED086C017B018A01FC0117821682E9
S1130CD0838181FFCCC1CE0101963C01F601938151
S1130CE0F70193FD859193FF81917F01882309F496
S1130CF0BAC1853239F493FD859193FF81917F01C7
S1130D00853229F4B60190E00E945308E7CF912C74
S1130D10212C312CFFE1F315D8F08B3279F038F423
S1130D20803279F08332A1F4232D20611DC08D32ED
S1130D3061F0803369F4232D216016C0832D826015
S1130D40382EE32DE4603E2E2AC0F32DF8601DC03A
S1130D5037FC2DC020ED280F2A3040F08E32B9F434
S1130D6036FC81C1232D2064322E19C036FE06C004
S1130D708AE0989E200D1124922E11C0EAE02E9E46
S1130D80200D1124222EF32DF0623F2E08C08C3644
S1130D9021F4832D8068382E02C0883641F4F7018F
S1130DA093FD859193FF81917F018111B3CF982F9A
S1130DB09F7D9554933028F40C5F1F4F9FE39983D4
S1130DC00DC0833631F0833771F0833509F059C093
S1130DD021C0F801808189830E5F1F4F882483948A
S1130DE0912C530113C02801F2E04F0E511CF8015D
S1130DF0A080B18036FE03C0692D70E002C06FEFA1
S1130E007FEFC5010E9448084C018201F32DFF7752
S1130E103F2E16C0280122E0420E511CF801A0808A
S1130E20B18036FE03C0692D70E002C06FEF7FEF22
S1130E30C5010E943D084C01F32DF0683F2E82014C
S1130E4033FC1BC0822D90E088169906B0F4B601DD
S1130E5080E290E00E9453082A94F4CFF50137FC15
S1130E60859137FE81915F01B60190E00E9453089D
S1130E7021102A9421E0821A91088114910471F7B7
S1130E80E8C0843611F0893641F5F80137FE07C011
S1130E9060817181828193810C5F1F4F08C06081E2
S1130EA07181072E000C880B990B0E5F1F4FF32DD9
S1130EB0FF763F2E97FF09C09095809570956195B8
S1130EC07F4F8F4F9F4FF0683F2E2AE030E0A30101
S1130ED00E948F08882E861845C0853731F4232D4B
S1130EE02F7EB22E2AE030E025C0932D997FB92EB3
S1130EF08F36C1F018F4883579F0B5C0803719F011
S1130F00883721F0B0C0E92FE061BE2EB4FE0DC0D9
S1130F10FB2DF460BF2E09C034FE0AC0292F2660C1
S1130F20B22E06C028E030E005C020E130E002C067
S1130F3020E132E0F801B7FE07C06081718182814F
S1130F4093810C5F1F4F06C06081718180E090E047
S1130F500E5F1F4FA3010E948F08882E8618FB2D59
S1130F60FF773F2E36FE0DC0232D2E7FA22E89142F
S1130F7058F434FE0BC032FC09C0832D8E7EA82E9B
S1130F8005C0B82CA32C03C0B82C01C0B92CA4FEF6
S1130F900FC0FE01E80DF11D8081803321F49A2DEC
S1130FA0997EA92E09C0A2FE06C0B394B39404C0CE
S1130FB08A2D867809F0B394A3FC11C0A0FE06C064
S1130FC0B21488F4280C922C9B180EC0B21460F44E
S1130FD0B60180E290E00E945308B394F7CFB214B4
S1130FE018F42B1802C0982C212CA4FE10C0B601B2
S1130FF080E390E00E945308A2FE17C0A1FC03C046
S113100088E790E002C088E590E0B6010CC08A2D24
S1131010867859F0A1FE02C08BE201C080E2A7FCF1
S11310208DE2B60190E00E945308891438F4B601A9
S113103080E390E00E9453089A94F7CF8A94F301D6
S1131040E80DF11D8081B60190E00E9453088110E3
S1131050F5CF222009F442CEB60180E290E00E944E
S113106053082A94F6CFF6018681978102C08FEF48
S11310709FEF2B96E2E10C940909FC010590615065
S113108070400110D8F7809590958E0F9F1F08959A
S1131090FC016150704001900110D8F78095909543
S11310A08E0F9F1F08950F931F93CF93DF93FB0120
S11310B0238121FD03C08FEF9FEF2CC022FF16C0B8
S11310C046815781248135814217530744F4A08116
S11310D0B1819D012F5F3F4F318320838C93268103
S11310E037812F5F3F4F3783268314C08B01EC0178
S11310F0FB010084F185E02D0995892BE1F6D801E7
S113110016968D919C911797019617969C938E93A2
S11311101697CE01DF91CF911F910F910895FA0197
S1131120AA27283051F1203181F1E8946F936E7F22
S11311306E5F7F4F8F4F9F4FAF4FB1E03ED0B4E013
S11311403CD0670F781F891F9A1FA11D680F791F54
S11311508A1F911DA11D6A0F711D811D911DA11D65
S113116020D009F468943F912AE0269F1124301975
S1131170305D3193DEF6CF010895462F4770405D10
S11311804193B3E00FD0C9F7F6CF462F4F70405DBF
S11311904A3318F0495D31FD4052419302D0A9F71A
S11311A0EACFB4E0A6959795879577956795BA9514
S11311B0C9F700976105710508959B01AC010A2EDA
S11311C006945795479537952795BA95C9F7620FB1
S11311D0731F841F951FA01D08952F923F924F9255
S11311E05F926F927F928F929F92AF92BF92CF92B3
S11311F0DF92EF92FF920F931F93CF93DF93CDB7BC
S1131200DEB7CA1BDB0B0FB6F894DEBF0FBECDBF33
S113121009942A88398848885F846E847D848C8404
S11312209B84AA84B984C884DF80EE80FD800C810D
S11312301B81AA81B981CE0FD11D0FB6F894DEBFF0
S10F12400FBECDBFED010895F894FFCF60
S113124C4261742064617520726573657420445323
S113125C31384232302E2E2E0D004B656F206368D0
S113126C616E2078756F6E672E2E2E0D005468619A
S113127C206368616E2E2E2E0D00506861742068F8
S113128C69656E2070726573656E63652070756C2C
S113129C7365210D004B484F4E47207068617420D4
S11312AC6869656E2070726573656E636520707510
S11312BC6C7365210D004B65742074687563207222
S11312CC657365742C2070726573656E6365203D5F
S11312DC2025640D0A004F4E20004F4646005465ED
S11312EC6D703A2025642E256420430050756D7072
S11312FC3A25732050574D3A25336425250048650B
S113130C6C6C6F2066726F6D2041726475696E6FC0
S113131C210D004368756F6E67207472696E6820C6
S113132C646F63206E6869657420646F2044533164
S113133C384232302C206869656E20746869204C00
S113134C4344202849324329207661205541525484
S113135C2028415652290D0052657365742052653C
S113136C73756C743A20310D004E68696574206491
S113137C6F3A20252E3166202A430D0A00526573DC
S113138C657420526573756C743A20300D00536586
S113139C6E736F72204572726F72004C6F693A20D3
S11313AC4B686F6E672074696D2074686179206373
S11313BC616D206269656E20445331384232300DC0
S10513CC00001B
S9030000FC
