S0180000417175617269756D5F436F6E74726F6C2E7372656387
S11300000C9434000C9461000C948A000C94460007
S11300100C9446000C9446000C9446000C94460044
S11300200C9446000C9446000C9446000C94460034
S11300300C9446000C9446000C9446000C94460024
S11300400C9446000C9446000C9446000C94460014
S11300500C9446000C9446000C9446000C94460004
S11300600C9446000C94460011241FBECFEFD8E038
S1130070DEBFCDBF21E0A0E0B1E001C01D92A230FF
S1130080B207E1F70E94A8000C94CB010C94000085
S11300908AB18B7F8AB98BB184608BB98AB1877F2F
S11300A08AB98BB188608BB9E9E6F0E0808182601F
S11300B080838081886080838DB383608DBB7894D6
S11300C008951F920F920FB60F9211242F938F93BE
S11300D09F932FEF80E792E0215080409040E1F71A
S11300E000C000004A990EC08091010190E0019681
S11300F083709078992324F401978C6F9F6F0196F5
S1130100809301019F918F912F910F900FBE0F90BB
S11301101F9018951F920F920FB60F9211242F93D0
S11301208F939F932FEF80E792E02150804090407F
S1130130E1F700C000004B9903C081E08093000107
S11301409F918F912F910F900FBE0F901F90189534
S1130150CF93DF9300D0CDB7DEB70E9448000E9452
S11301604F0181E090E09A8389830E940401809189
S11301700101813059F028F0823069F08330E9F0D0
S11301802DC080E090E00E94560128C08FEF9FEFC1
S11301900E94560123C0CE0101960E94620189810A
S11301A09A810E9456012FEF81EE94E02150804005
S11301B09040E1F700C0000011C0CE0101960E94FA
S11301C07E0189819A810E9456012FEF81EE94E08D
S11301D0215080409040E1F700C000008091000170
S11301E0882329F284EB0E9414012FEF83ED90E31E
S11301F0215080409040E1F700C0000080E00E9460
S1130200140110920001B3CF8AB180628AB982E8E6
S1130210809380008AE1809381008FE39CE990932E
S11302208700809386000895282F30E0A0EDB7E082
S11302300E94BC0124EB30E040E050E00E949A01AF
S11302402053384F3093890020938800089597E015
S11302501AC0282F30E0092E02C0359527950A943C
S1130260E2F720FF04C02BB120642BB903C02BB1EB
S11302702F7B2BB92BB120612BB900002BB12F7E22
S11302802BB900009150992324F708958BB1806213
S11302908BB900008BB18F7D8BB9000008958AB1B2
S11302A080678AB98BB18F788BB90895CF93C82FA3
S11302B0892F0E9427018C2F0E9427010E9446014A
S11302C0CF910895CF93DF93EC01888199810E94A7
S11302D0560183EC99E00197F1F700C00000888192
S11302E09981880F991F99838883892B21F481E050
S11302F090E099838883DF91CF910895CF93DF9322
S1130300EC01888199810E94560187EA91E6019760
S1130310F1F700C0000088819981969587959983AB
S11303208883892B21F480E090E899838883DF9186
S1130330CF910895A1E21A2EAA1BBB1BFD010DC08B
S1130340AA1FBB1FEE1FFF1FA217B307E407F50781
S113035020F0A21BB30BE40BF50B661F771F881F5D
S1130360991F1A9469F760957095809590959B01F3
S1130370AC01BD01CF010895A29FB001B39FC0019C
S1130380A39F700D811D1124911DB29F700D811DBD
S10D03901124911D0895F894FFCF85
S9030000FC
