:100000000C9434000C94BE020C94E4020C94510045
:100010000C9451000C9451000C9451000C9451001C
:100020000C9451000C9451000C9451000C9451000C
:100030000C9451000C9451000C9451000C945100FC
:100040000C9451000C9451000C9451000C945100EC
:100050000C9451000C9451000C9451000C945100DC
:100060000C9451000C94510011241FBECFEFD8E026
:10007000DEBFCDBF12E0A0E0B1E0E2E2F4E102C0F9
:1000800005900D92A238B107D9F722E0A2E8B2E0BC
:1000900001C01D92A039B207E1F70E9402030C943F
:1000A0000F0A0C9400008AB180648AB98BB1806415
:1000B0008BB90895CF9380E091E00E94BB068AB18E
:1000C00080648AB98BB18F7B8BB98AE191E00E9401
:1000D000BB068FEC97E00197F1F700C000008AB1F2
:1000E0008F7B8AB98DE291E00E94BB0687E191E0A7
:1000F0000197F1F700C000004E9906C08AE391E035
:100100000E94BB06C1E005C085E591E00E94BB06E8
:10011000C0E08FEC97E00197F1F700C000001F925C
:10012000CF9386E791E09F938F930E94E9040F900D
:100130000F900F900F908C2FCF9108959AB19064EB
:100140009AB99BB19F7B9BB99AE09A95F1F700C051
:10015000882319F08AB18F7B8AB98FEE90E00197DE
:10016000F1F700C000008AB18F7B8AB908958AB187
:1001700080648AB98BB18F7B8BB98AE08A95F1F75D
:1001800000C08AB18F7B8AB990E59A95F1F74E99B4
:1001900002C080E001C081E090EF9A95F1F70895E8
:1001A000CF93DF93D82FC0E00CC081E090E00C2EFD
:1001B00002C0880F991F0A94E2F78D230E949E00C7
:1001C000CF5FC83090F3DF91CF910895CF93DF9345
:1001D000C0E0D0E00EC00E94B700882349F081E063
:1001E00090E00C2E02C0880F991F0A94E2F7D82BDA
:1001F000CF5FC83080F38D2FDF91CF9108950E949B
:100200005A008CEC0E94D00084E40E94D0002FEFB2
:100210008EE994E2215080409040E1F700C0000058
:100220000895CF930E945A008CEC0E94D0008EEB70
:100230000E94D0000E94E600C82F0E94E600682FAE
:1002400070E0762F66276C2B77238CF4719561957F
:100250007109072E000C880B990B0E94B30520E052
:1002600030E040E85DE30E943F0690580CC0072E46
:10027000000C880B990B0E94B30520E030E040E8A9
:100280005DE30E943F06CF91089588E48093B80013
:1002900084E08093BC00089594EA9093BC00909110
:1002A000BC009923E4F79091B900987F983029F029
:1002B0009091B900987F903189F4880F8093BB00AA
:1002C00084E88093BC008091BC008823E4F780918F
:1002D000B900887F883121F082E0089581E0089597
:1002E00080E008958093BB0084E88093BC008091F7
:1002F000BC008823E4F78091B900887F883211F030
:1003000081E0089580E0089584E98093BC008091A5
:10031000BC0084FDFCCF0895CF93DF93C82FC07F2E
:10032000DC2FD86087E20E944C018C2F8C600E94E9
:1003300072018AE18A95F1F700C08D2F0E94720147
:100340000E94840187EC90E00197F1F700C0000063
:10035000DF91CF9108951F93CF93DF93182FC62F6E
:1003600087E20E944C01D1E0C11101C0D0E0C12F51
:10037000C07FC860CD2BC4608C2F0E9472018C2F6F
:10038000897F0E94720120E1129FC00111248860C0
:10039000D82BD4608D2F0E9472018D2F8B7F0E94ED
:1003A00072010E948401DF91CF911F91089561E055
:1003B0000E94AB010895CF93DF93EC0103C0219617
:1003C0000E94D70188818111FACFDF91CF910895E2
:1003D000813011F080E001C080E4860F60E0806829
:1003E0000E94AB0108958F929F92AF92BF92EF92BD
:1003F000FF920F931F93CF93DF93CDB7DEB7A197F3
:100400000FB6F894DEBF0FBECDBF8C0160E080E078
:100410000E94E801F80180809180A280B380C5012C
:10042000B4010E948205F62E70E080E090E00E9408
:10043000B3059B01AC01C501B4010E94150520E084
:1004400030E040E251E40E943F060E9482051F9284
:100450006F931F92FF928EE991E09F938F931F926B
:1004600080E18F93AE014F5F5F4F7A015F934F93AF
:100470000E94EB06C7010E94DB0160E081E00E9460
:10048000E801F801258184810FB6F894DEBF0FBE24
:10049000CDBF882319F086E991E002C08AE991E096
:1004A0001F922F939F938F938CEA91E09F938F934A
:1004B0001F9281E18F938E010F5E1F4F1F930F9349
:1004C0000E94EB06C8010E94DB010FB6F894DEBF64
:1004D0000FBECDBFA1960FB6F894DEBF0FBECDBF45
:1004E000DF91CF911F910F91FF90EF90BF90AF9050
:1004F0009F908F90089560E081E00E94AB018FE1B2
:100500009EE40197F1F700C0000008950E944501A4
:100510002FEF81EE94E0215080409040E1F700C041
:10052000000080E30E948C018FEC97E00197F1F7C7
:1005300000C0000080E30E948C018FEC97E00197DF
:10054000F1F700C0000080E30E948C018FE891E089
:100550000197F1F700C0000080E20E948C0160E08A
:1005600088E20E94AB0160E08CE00E94AB010E9437
:100570007B0260E086E00E94AB0108951F920F921B
:100580000FB60F9211242F938F939F932FEF80E735
:1005900092E0215080409040E1F700C000004A996D
:1005A0000BC0809182028F5F8093820280918202D1
:1005B000843010F0109282029F918F912F910F90B2
:1005C0000FBE0F901F9018951F920F920FB60F92AB
:1005D00011242F938F939F932FEF80E792E0215068
:1005E00080409040E1F700C000004B9903C081E0DB
:1005F000809383029F918F912F910F900FBE0F9048
:100600001F90189587E690E00E94C1048EEB91E060
:100610000E94BB0683ED91E00E94BB060E9445014B
:100620000E9453000E9486020E94DA030E9427045F
:100630000E9470040E9474040E945E0478940E94D8
:100640005A00882349F10E94FF000E941101C4E86A
:10065000D2E0688379838A839B83AE010E94190468
:10066000CE010E94F30188E192E00E94BB068881DE
:1006700099812A813B813F932F939F938F9389E2A6
:1006800092E09F938F930E94E9040F900F900F9038
:100690000F900F900F9012C08DE392E00E94BB0666
:1006A0000E947B0260E080E00E94E8018EE492E01C
:1006B0000E94DB018BE592E00E94BB0680918202E2
:1006C0008130A9F030F08230C1F1833009F457C095
:1006D0005FC080E090E00E94AA042FEF81EE94E0DA
:1006E000215080409040E1F700C0000051C08FEFE2
:1006F0009FEF0E94AA042FEF81EE94E021508040EA
:100700009040E1F700C0000043C081E090E00C2E73
:1007100002C0880F991F0A94E2F7082B192BC80111
:100720000E94AA042FEF82E597E02150804090407C
:10073000E1F700C00000CF5F03C0C0E000E010E0C0
:10074000C03130F5809182028230F9F221C081E01F
:1007500090E00C2E02C0880F991F0A94E2F7082B34
:10076000192BC8010E94AA042FEF82E597E02150BF
:1007700080409040E1F700C00000C15003C0CFE0CE
:1007800000E010E0CC2324F0809182028330F9F263
:1007900080918302882321F00E94410410928302F9
:1007A0002FEF87EA91E6215080409040E1F700C0AA
:1007B000000045CF8AB1806B8AB984B1816084B969
:1007C00083E084BD88E085BD89EF87BD18BC0895AE
:1007D000482F853608F044E687B590E00196489F9B
:1007E0009001499F300D1124369527953695279510
:1007F000ABE7B4E10E94AC069695879588BD44238B
:1008000061F084B5806284BD8BE085BD8BB180686A
:100810008BB98BB18F7E8BB9089584B58F7D84BDE4
:1008200088E085BD8BB180618BB98BB18F778BB937
:100830000895CF93DF93EA0180E00E94E8031D82D0
:100840001C8285B18E7F85B9DF91CF91089584B1E7
:10085000826084B9E0E8F0E0808182688083E1E82A
:10086000F0E080818A6180838FE39CE99093870028
:100870008093860088EE93E09093890080938800AF
:100880000895E8E8F0E084E991E1918380832FEF17
:1008900083ED90E3215080409040E1F700C00000DC
:1008A00088EE93E0918380832FEF83ED90E32150D6
:1008B00080409040E1F700C0000008958AB1877F32
:1008C0008AB98BB188608BB9E9E6F0E080818860F5
:1008D000808380818B7F80838DB382608DBB089500
:1008E00084B18C6284B908958AB18B7F8AB98BB147
:1008F00084608BB9E9E6F0E080818260808380814A
:100900008E7F80838DB381608DBB089590E01FC082
:1009100047E050E0491B5109282F30E002C03595CF
:1009200027954A95E2F720FF04C025B1286025B934
:1009300003C025B1277F25B925B1206225B925E05F
:100940002A95F1F7000025B12F7D25B99F5F9830DA
:10095000F8F20895CF93C82F85B18B7F85B9892F81
:100960000E9486048C2F0E94860485B1846085B91C
:1009700085E08A95F1F7000085B18B7F85B9CF912D
:1009800008959093C5008093C40088E18093C100CE
:1009900086E08093C20008959091C00095FFFCCF3F
:1009A0008093C60008950F931F93CF93DF938C011C
:1009B000C0E0D0E003C00E94CC042196F801EC0F07
:1009C000FD1F80818111F7CFDF91CF911F910F9192
:1009D00008950F931F93CF93DF93CDB7DEB7C05821
:1009E000D1090FB6F894DEBF0FBECDBF9E012957C7
:1009F0003F4FF901419151919F0160E870E0CE01B4
:100A000001960E941B078C01CE0101960E94D3041F
:100A1000C801C058DF4F0FB6F894DEBF0FBECDBF80
:100A2000DF91CF911F910F9108955058BB27AA27AE
:100A30000E942D050C9405060E94F70538F00E94CF
:100A4000FE0520F039F49F3F19F426F40C94F405C8
:100A50000EF4E095E7FB0C94EE05E92F0E941606D4
:100A600058F3BA17620773078407950720F079F4E3
:100A7000A6F50C9438060EF4E0950B2EBA2FA02D97
:100A80000B01B90190010C01CA01A0011124FF273B
:100A9000591B99F0593F50F4503E68F11A16F04036
:100AA000A22F232F342F4427585FF3CF4695379535
:100AB0002795A795F0405395C9F77EF41F16BA0BFA
:100AC000620B730B840BBAF09150A1F0FF0FBB1FA8
:100AD000661F771F881FC2F70EC0BA0F621F731FF1
:100AE000841F48F4879577956795B795F7959E3F4E
:100AF00008F0B0CF9395880F08F09927EE0F9795DF
:100B0000879508950E941E0688F09F5798F0B92F88
:100B10009927B751B0F0E1F0660F771F881F991F32
:100B20001AF0BA95C9F714C0B13091F00E94380696
:100B3000B1E008950C943806672F782F8827B85FA6
:100B400039F0B93FCCF3869577956795B395D9F78A
:100B50003EF490958095709561957F4F8F4F9F4F94
:100B60000895E89409C097FB3EF4909580957095A0
:100B700061957F4F8F4F9F4F9923A9F0F92F96E9E9
:100B8000BB279395F695879577956795B795F1115E
:100B9000F8CFFAF4BB0F11F460FF1BC06F5F7F4FFB
:100BA0008F4F9F4F16C0882311F096E911C077230D
:100BB00021F09EE8872F762F05C0662371F096E816
:100BC000862F70E060E02AF09A95660F771F881FE5
:100BD000DAF7880F9695879597F9089597F99F67A3
:100BE00080E870E060E008959FEF80EC08950024B5
:100BF0000A941616170618060906089500240A9482
:100C000012161306140605060895092E0394000C07
:100C100011F4882352F0BB0F40F4BF2B11F460FF96
:100C200004C06F5F7F4F8F4F9F4F089557FD9058BF
:100C3000440F551F59F05F3F71F04795880F97FBA0
:100C4000991F61F09F3F79F087950895121613065A
:100C50001406551FF2CF4695F1DF08C01616170689
:100C60001806991FF1CF86957105610508940895BE
:100C7000E894BB2766277727CB0197F908950E9450
:100C800052060C9405060E94F70538F00E94FE05F6
:100C900020F0952311F00C94EE050C94F40511242A
:100CA0000C9439060E94160670F3959FC1F3950FB8
:100CB00050E0551F629FF001729FBB27F00DB11DE0
:100CC000639FAA27F00DB11DAA1F649F6627B00D70
:100CD000A11D661F829F2227B00DA11D621F739F59
:100CE000B00DA11D621F839FA00D611D221F749F67
:100CF0003327A00D611D231F849F600D211D822FAE
:100D0000762F6A2F11249F5750409AF0F1F08823D4
:100D10004AF0EE0FFF1FBB1F661F771F881F915001
:100D20005040A9F79E3F510580F00C94EE050C94BD
:100D300039065F3FE4F3983ED4F38695779567953F
:100D4000B795F795E7959F5FC1F7FE2B880F911D2B
:100D50009695879597F90895A29FB001B39FC0011A
:100D6000A39F700D811D1124911DB29F700D811DD7
:100D70001124911D08950F931F93CF93DF93E0915A
:100D80008C02F0918D02238121FF1BC08C01D0E0E9
:100D9000C0E0F80181918F0160918C0270918D0209
:100DA000DB011896ED91FC911997882331F0099594
:100DB000892B79F3DFEFCFEFECCF8AE00995892B10
:100DC00019F08FEF9FEF02C08D2F9C2FDF91CF91F5
:100DD0001F910F910895AEE0B0E0E1EFF6E00C94C2
:100DE000E6090D891E898F89988D26E02C831A8348
:100DF000098397FF02C080E090E801979E838D836E
:100E0000AE01455E5F4F698D7A8DCE0101960E94DD
:100E100047074D815E8157FD0AC02F8138854217F3
:100E200053070CF49A01F801E20FF31F10822E967B
:100E3000E4E00C94020AAEE0B0E0E1E2F7E00C94EA
:100E4000E6098C01FA0186E08C831A83098377FF17
:100E500002C060E070E8CB0101979E838D83A901F9
:100E6000BF01CE0101960E9447074D815E8157FD6B
:100E70000AC02F813885421753070CF49A01F801F4
:100E8000E20FF31F10822E96E4E00C94020AABE00E
:100E9000B0E0EDE4F7E00C94D8096C017B018A0125
:100EA000FC0117821682838181FFCCC1CE0101969D
:100EB0003C01F6019381F70193FD859193FF8191A8
:100EC0007F01882309F4BAC1853239F493FD8591F5
:100ED00093FF81917F01853229F4B60190E00E9451
:100EE0003E09E7CF912C212C312CFFE1F315D8F0EE
:100EF0008B3279F038F4803279F08332A1F4232DEB
:100F000020611DC08D3261F0803369F4232D216092
:100F100016C0832D8260382EE32DE4603E2E2AC059
:100F2000F32DF8601DC037FC2DC020ED280F2A30AE
:100F300040F08E32B9F436FC81C1232D2064322E6C
:100F400019C036FE06C08AE0989E200D1124922E0C
:100F500011C0EAE02E9E200D1124222EF32DF06206
:100F60003F2E08C08C3621F4832D8068382E02C0B5
:100F7000883641F4F70193FD859193FF81917F01BC
:100F80008111B3CF982F9F7D9554933028F40C5F37
:100F90001F4F9FE399830DC0833631F0833771F083
:100FA000833509F059C021C0F801808189830E5F23
:100FB0001F4F88248394912C530113C02801F2E021
:100FC0004F0E511CF801A080B18036FE03C0692D80
:100FD00070E002C06FEF7FEFC5010E9433094C0142
:100FE0008201F32DFF773F2E16C0280122E0420E2A
:100FF000511CF801A080B18036FE03C0692D70E05D
:1010000002C06FEF7FEFC5010E9428094C01F32D4C
:10101000F0683F2E820133FC1BC0822D90E08816C1
:101020009906B0F4B60180E290E00E943E092A944D
:10103000F4CFF50137FC859137FE81915F01B60150
:1010400090E00E943E0921102A9421E0821A910822
:101050008114910471F7E8C0843611F0893641F5A6
:10106000F80137FE07C060817181828193810C5F36
:101070001F4F08C060817181072E000C880B990BEF
:101080000E5F1F4FF32DFF763F2E97FF09C09095FF
:101090008095709561957F4F8F4F9F4FF0683F2EE1
:1010A0002AE030E0A3010E947A09882E861845C004
:1010B000853731F4232D2F7EB22E2AE030E025C073
:1010C000932D997FB92E8F36C1F018F4883579F0B9
:1010D000B5C0803719F0883721F0B0C0E92FE06142
:1010E000BE2EB4FE0DC0FB2DF460BF2E09C034FE31
:1010F0000AC0292F2660B22E06C028E030E005C0C5
:1011000020E130E002C020E132E0F801B7FE07C084
:1011100060817181828193810C5F1F4F06C0608165
:10112000718180E090E00E5F1F4FA3010E947A0959
:10113000882E8618FB2DFF773F2E36FE0DC0232DFF
:101140002E7FA22E891458F434FE0BC032FC09C045
:10115000832D8E7EA82E05C0B82CA32C03C0B82CDE
:1011600001C0B92CA4FE0FC0FE01E80DF11D808165
:10117000803321F49A2D997EA92E09C0A2FE06C0C3
:10118000B394B39404C08A2D867809F0B394A3FC79
:1011900011C0A0FE06C0B21488F4280C922C9B1833
:1011A0000EC0B21460F4B60180E290E00E943E09E5
:1011B000B394F7CFB21418F42B1802C0982C212C3A
:1011C000A4FE10C0B60180E390E00E943E09A2FE9A
:1011D00017C0A1FC03C088E790E002C088E590E05A
:1011E000B6010CC08A2D867859F0A1FE02C08BE2B0
:1011F00001C080E2A7FC8DE2B60190E00E943E09AA
:10120000891438F4B60180E390E00E943E099A9474
:10121000F7CF8A94F301E80DF11D8081B60190E0CB
:101220000E943E098110F5CF222009F442CEB6017A
:1012300080E290E00E943E092A94F6CFF601868172
:10124000978102C08FEF9FEF2B96E2E10C94F40997
:10125000FC010590615070400110D8F78095909581
:101260008E0F9F1F0895FC01615070400190011086
:10127000D8F7809590958E0F9F1F08950F931F9319
:10128000CF93DF93FB01238121FD03C08FEF9FEFFD
:101290002CC022FF16C04681578124813581421718
:1012A000530744F4A081B1819D012F5F3F4F3183EB
:1012B00020838C93268137812F5F3F4F378326838E
:1012C00014C08B01EC01FB010084F185E02D099530
:1012D000892BE1F6D80116968D919C91179701966E
:1012E00017969C938E931697CE01DF91CF911F9105
:1012F0000F910895FA01AA27283051F1203181F188
:10130000E8946F936E7F6E5F7F4F8F4F9F4FAF4F0D
:10131000B1E03ED0B4E03CD0670F781F891F9A1F20
:10132000A11D680F791F8A1F911DA11D6A0F711DD4
:10133000811D911DA11D20D009F468943F912AE0E0
:10134000269F11243019305D3193DEF6CF010895C8
:10135000462F4770405D4193B3E00FD0C9F7F6CFF9
:10136000462F4F70405D4A3318F0495D31FD4052C1
:10137000419302D0A9F7EACFB4E0A6959795879557
:1013800077956795BA95C9F7009761057105089536
:101390009B01AC010A2E06945795479537952795E2
:1013A000BA95C9F7620F731F841F951FA01D08957A
:1013B0002F923F924F925F926F927F928F929F9265
:1013C000AF92BF92CF92DF92EF92FF920F931F9353
:1013D000CF93DF93CDB7DEB7CA1BDB0B0FB6F89404
:1013E000DEBF0FBECDBF09942A88398848885F8444
:1013F0006E847D848C849B84AA84B984C884DF80B5
:10140000EE80FD800C811B81AA81B981CE0FD11D98
:101410000FB6F894DEBF0FBECDBFED010895F8946E
:02142000FFCFFC
:10142200426174206461752072657365742044534F
:1014320031384232302E2E2E0D004B656F206368FC
:10144200616E2078756F6E672E2E2E0D00546861C6
:10145200206368616E2E2E2E0D0050686174206824
:1014620069656E2070726573656E63652070756C58
:101472007365210D004B484F4E4720706861742000
:101482006869656E2070726573656E63652070753C
:101492006C7365210D004B6574207468756320724E
:1014A200657365742C2070726573656E6365203D8B
:1014B2002025640D0A004F4E20004F464600546519
:1014C2006D703A2025642E256420430050756D709E
:1014D2003A25732050574D3A253364252500486537
:1014E2006C6C6F2066726F6D2041726475696E6FED
:1014F200210D004368756F6E67207472696E6820F3
:10150200646F63206E6869657420646F2044533190
:10151200384232302C206869656E20746869204C2C
:1015220043442028493243292076612055415254B0
:101532002028415652290D00526573657420526568
:1015420073756C743A20310D004E686965742064BD
:101552006F3A20252E3166202A430D0A0052657308
:10156200657420526573756C743A20300D005365B2
:101572006E736F72204572726F72004C6F693A20FF
:101582004B686F6E672074696D207468617920639F
:10159200616D206269656E20445331384232300DEC
:0215A200000047
:00000001FF
