:100000000C9434000C945D000C9446000C94460053
:100010000C9446000C9446000C9446000C94460048
:100020000C9446000C9446000C9446000C94460038
:100030000C9446000C9446000C9446000C94460028
:100040000C9446000C9446000C9446000C94460018
:100050000C9446000C9446000C9446000C94460008
:100060000C9446000C94460011241FBECFEFD8E03C
:10007000DEBFCDBF21E0A0E0B1E001C01D92AF30F6
:10008000B207E1F70E941A010C9468020C94000078
:100090008AB18B7F8AB98BB184608BB9E9E6F0E0D5
:1000A0008081816080838DB381608DBB10928100DF
:1000B0007894089510920A0108951F920F920FB636
:1000C0000F9211242F938F939F93AF93BF9380919F
:1000D0000901813091F030F0823079F1833009F4F8
:1000E00050C09CC0109285001092840082E08093E2
:1000F000810081E08093090193C0809184009091F8
:1001000085009093080180930701109281008091EF
:1001100007019091080189559B41873B9B4050F412
:10012000109285001092840082E080938100809379
:10013000090176C01092090173C0809184009091EA
:1001400085009093060180930501109281008091B3
:100150000501909106018D5A9D408F3C974070F4A7
:1001600010920401109200011092010110920201FC
:100170001092030183E08093090152C0109209019B
:100180004FC087EB8A95F1F700004A9B16C080911B
:10019000000190910101A0910201B0910301880F2B
:1001A000991FAA1FBB1F81608093000190930101DA
:1001B000A0930201B093030114C0809100019091BB
:1001C0000101A0910201B0910301880F991FAA1F9C
:1001D000BB1F8093000190930101A0930201B09393
:1001E0000301809104018F5F809304018032C0F08D
:1001F0008091000190910101A0910201B091030151
:1002000080930B0190930C01A0930D01B0930E010C
:1002100081E080930A011092090102C01092090145
:10022000BF91AF919F918F912F910F900FBE0F9023
:100230001F901895CF93DF9300D0CDB7DEB70E9403
:1002400048000E94EC0181E090E09A8389830E943B
:10025000A10110E000E080910A01882309F462C046
:10026000C0900B01D0900C01E0900D01F0900E01B8
:100270000E945A002DEDC21622E2D2062FEFE206AE
:10028000F10499F148F49DEFC91692E0D9069FEF69
:10029000E906F10491F146C02DE5C21622EAD20624
:1002A0002FEFE206F10449F08DE1C81682EED80680
:1002B0008FEFE806F10489F035C0011107C08FEF18
:1002C0009FEF0E94F30110E001E02CC080E090E07D
:1002D0000E94F30110E000E025C01130F1F480E04D
:1002E00090E00E94F30110E01DC01230C9F480E0DC
:1002F00090E00E94F30110E015C084EB0E94B10170
:100300009FEF29E688E1915020408040E1F700C04E
:10031000000080E00E94B10105C011E000E002C0D1
:1003200012E000E0113029F4CE0101960E94FF0195
:1003300092CF123009F08FCFCE0101960E941B029E
:100340008ACF8AB180628AB982E8809380008AE18C
:10035000809381008FE39CE99093870080938600CF
:100360000895282F30E0A0EDB7E00E94590224EB59
:1003700030E040E050E00E9437022053384F309385
:10038000890020938800089597E01AC0282F30E054
:10039000092E02C0359527950A94E2F720FF04C084
:1003A0002BB120612BB903C02BB12F7E2BB92BB100
:1003B00024602BB900002BB12B7F2BB9000091508A
:1003C000992324F708958BB188608BB900008BB115
:1003D000877F8BB90000089584B18C6184B985B1A1
:1003E000837E85B90895CF93C82F892F0E94C401B9
:1003F0008C2F0E94C4010E94E301CF910895CF93F6
:10040000DF93EC01888199810E94F30183EC99E0EC
:100410000197F1F700C0000088819981880F991F2A
:1004200099838883892B21F481E090E099838883E4
:10043000DF91CF910895CF93DF93EC01888199816B
:100440000E94F30187EA91E60197F1F700C00000EE
:10045000888199819695879599838883892B21F442
:1004600080E090E899838883DF91CF910895A1E29D
:100470001A2EAA1BBB1BFD010DC0AA1FBB1FEE1F1E
:10048000FF1FA217B307E407F50720F0A21BB30B69
:10049000E40BF50B661F771F881F991F1A9469F7E5
:1004A00060957095809590959B01AC01BD01CF0141
:1004B0000895A29FB001B39FC001A39F700D811D3D
:1004C0001124911DB29F700D811D1124911D08955D
:0404D000F894FFCFCE
:00000001FF
