:100000000C9434000C9451000C946F000C9451002B
:100010000C9451000C9406010C9451000C94510066
:100020000C9451000C9451000C9451000C9451000C
:100030000C9451000C9451000C9451000C945100FC
:100040000C9451000C9451000C9451000C945100EC
:100050000C9451000C9451000C9451000C945100DC
:100060000C9451000C94510011241FBECFEFD8E026
:10007000DEBFCDBF11E0A0E0B1E0E6E5F2E002C0F6
:1000800005900D92A030B107D9F721E0A0E0B1E0D2
:1000900001C01D92A530B207E1F70E9453000C94F5
:1000A00029010C9400000E947E000E948800789430
:1000B0000E94C4002FEF89E698E1215080409040D3
:1000C000E1F700C000000E94E5002FEF89E698E10B
:1000D000215080409040E1F700C00000E9CF1F921E
:1000E0000F920FB60F9211248F9381E0809300013D
:1000F0008F910F900FBE0F901F90189584B1806163
:1001000084B984B18C6284B985B1837D85B9089541
:1001100087B1807F87B988B18F6088B9E8E6F0E061
:10012000808184608083EDE6F0E080818F60808351
:10013000089590E01BC047E050E0491B5109282F6B
:1001400030E002C0359527954A95E2F720FF04C0BC
:1001500025B1286025B903C025B1277F25B925B170
:10016000206225B925B12F7D25B99F5F983018F3FE
:10017000089585B1846085B985E08A95F1F700001E
:1001800085B18B7F85B908951F93CF93DF9310E0DE
:10019000C1E0D0E014C08D2F0E9499008C2F0E94E6
:1001A00099000E94B9002FEF81EE94E02150804029
:1001B0009040E1F700C00000CC0FDD1F1F5F103141
:1001C00050F3DF91CF911F9108951F93CF93DF9349
:1001D00010E0C0E0D0E814C08D2F0E9499008C2F51
:1001E0000E9499000E94B9002FEF81EE94E0215007
:1001F00080409040E1F700C00000D695C7951F5F92
:10020000103150F3DF91CF911F9108951F920F92FB
:100210000FB60F9211248F9385B1806185B9309903
:1002200003C081E080930101319903C081E0809394
:100230000201329903C081E080930301339903C026
:1002400081E0809304018F910F900FBE0F901F905B
:060250001895F894FFCFA1
:00000001FF
