S0180000417175617269756D5F436F6E74726F6C2E7372656387
S11300000C9434000C9451000C9451000C94510045
S11300100C9451000C9451000C9451000C94510018
S11300200C9451000C9451000C9451000C94510008
S11300300C9451000C9451000C9451000C945100F8
S11300400C9451000C9451000C9451000C945100E8
S11300500C9451000C9451000C9451000C945100D8
S11300600C9451000C94510011241FBECFEFD8E022
S1130070DEBFCDBF12E0A0E0B1E0E2E0FFE002C0ED
S113008005900D92A436B107D9F722E0A4E6B2E0B8
S113009001C01D92AA36B207E1F70E943F020C94F8
S11300A07F070C9400004AB121E030E0B90102C09E
S11300B0660F771F8A95E2F7CB01462B4AB99BB1AD
S11300C0892B8BB90895CF9380E091E00E94390485
S11300D08AB184608AB98BB18B7F8BB98AE191E054
S11300E00E9439048FEC97E00197F1F700C00000FB
S11300F08AB18B7F8AB98DE291E00E94390487E14D
S113010091E00197F1F700C000004A9906C08AE324
S113011091E00E943904C1E005C085E591E00E94A8
S11301203904C0E08FEC97E00197F1F700C00000BC
S11301301F92CF9386E791E09F938F930E94DC02F6
S11301400F900F900F900F908C2FCF9108959AB12C
S113015094609AB99BB19B7F9BB99AE09A95F1F709
S113016000C0882319F08AB18B7F8AB98FEE90E0A2
S11301700197F1F700C000008AB18B7F8AB9089516
S11301808AB184608AB98BB18B7F8BB98AE08A95F6
S1130190F1F700C08AB18B7F8AB990E59A95F1F79F
S11301A04A9902C080E001C081E090EF9A95F1F78E
S11301B00895CF93DF93D82FC0E00CC081E090E086
S11301C00C2E02C0880F991F0A94E2F78D230E9417
S11301D0A700CF5FC83090F3DF91CF910895CF93FC
S11301E0DF93C0E0D0E00EC00E94C000882349F035
S11301F081E090E00C2E02C0880F991F0A94E2F768
S1130200D82BCF5FC83080F38D2FDF91CF91089525
S11302100E9463008CEC0E94D90084E40E94D900FF
S11302202FEF8EE994E2215080409040E1F700C026
S113023000000895CF930E9463008CEC0E94D900C3
S11302408EEB0E94D9000E94EF00C82F0E94EF009D
S1130250682F70E0762F66276C2B77238CF47195CA
S113026061957109072E000C880B990B0E944003BD
S113027020E030E040E85DE30E94A40390580CC005
S1130280072E000C880B990B0E94400320E030E0FD
S113029040E85DE30E94A403CF91089588E480932D
S11302A0B80084E08093BC00089594EA9093BC0065
S11302B09091BC009923E4F79091B900987F98300D
S11302C029F09091B900987F903189F4880F809338
S11302D0BB0084E88093BC008091BC008823E4F7D1
S11302E08091B900887F883121F082E0089581E00F
S11302F0089580E008958093BB0084E88093BC0057
S11303008091BC008823E4F78091B900887F88320B
S113031011F081E0089580E0089584E98093BC00A1
S11303208091BC0084FDFCCF0895CF93DF93C82F48
S1130330C07FDC2FD86087E20E9455018C2F8C602F
S11303400E947B018AE18A95F1F700C08D2F0E94FB
S11303507B010E948D0187EC90E00197F1F700C0CA
S11303600000DF91CF9108951F93CF93DF93182F4F
S1130370C62F87E20E945501D1E0C11101C0D0E02F
S1130380C12FC07FC860CD2BC4608C2F0E947B011D
S11303908C2F897F0E947B0120E1129FC0011124D0
S11303A08860D82BD4608D2F0E947B018D2F8B7F8A
S11303B00E947B010E948D01DF91CF911F910895CE
S11303C061E00E94B4010895CF93DF93EC0103C070
S11303D021960E94E00188818111FACFDF91CF91AB
S11303E00895813011F080E001C080E4860F60E060
S11303F080680E94B401089560E081E00E94B40125
S11304008FE19EE40197F1F700C0000008950E9477
S11304104E012FEF81EE94E0215080409040E1F7AF
S113042000C0000080E30E9495018FEC97E00197E3
S1130430F1F700C0000080E30E9495018FEC97E083
S11304400197F1F700C0000080E30E9495018FE856
S113045091E00197F1F700C0000080E20E9495014D
S113046060E088E20E94B40160E08CE00E94B40184
S11304700E94FC0160E086E00E94B4010895CF93DD
S1130480DF93CDB7DEB764970FB6F894DEBF0FBE27
S1130490CDBF87E690E00E94B40286E991E00E9415
S11304A039048BEA91E00E9439040E944E0182E0F3
S11304B00E9453000E9407020E9463008823C1F136
S11304C00E9408010E941A01162F072FF82EE92E08
S11304D080EF91E00E9439040E94FC01612F702F8B
S11304E08F2D9E2D0E9408037F936F9381E092E0ED
S11304F09F938F93CE0101966C019F938F930E94DB
S1130500690460E080E00E94F101C6010E94E401F8
S1130510EF92FF920F931F938CE092E09F938F933F
S11305200E94DC020FB6F894DEBF0FBECDBF12C02E
S113053080E292E00E9439040E94FC0160E080E0C5
S11305400E94F10181E392E00E94E4018EE392E0D3
S11305500E9439049FEF23ED80E3915020408040B6
S1130560E1F700C00000A8CF9093C5008093C400B9
S113057088E18093C10086E08093C2000895909141
S1130580C00095FFFCCF8093C60008950F931F937E
S1130590CF93DF938C01C0E0D0E003C00E94BF0280
S11305A02196F801EC0FFD1F80818111F7CFDF91B7
S11305B0CF911F910F9108950F931F93CF93DF93C2
S11305C0CDB7DEB7C058D1090FB6F894DEBF0FBE61
S11305D0CDBF9E0129573F4FF901419151919F0190
S11305E060E870E0CE0101960E948B048C01CE017C
S11305F001960E94C602C801C058DF4F0FB6F89496
S1130600DEBF0FBECDBFDF91CF911F910F91089533
S11306100E940F036894B1110C949E0308950E94E4
S1130620830388F09F5798F0B92F9927B751B0F0FA
S1130630E1F0660F771F881F991F1AF0BA95C9F762
S113064014C0B13091F00E949D03B1E008950C9460
S11306509D03672F782F8827B85F39F0B93FCCF313
S1130660869577956795B395D9F73EF490958095DF
S1130670709561957F4F8F4F9F4F0895E89409C0FF
S113068097FB3EF490958095709561957F4F8F4FC1
S11306909F4F9923A9F0F92F96E9BB279395F695D7
S11306A0879577956795B795F111F8CFFAF4BB0F55
S11306B011F460FF1BC06F5F7F4F8F4F9F4F16C0B9
S11306C0882311F096E911C0772321F09EE8872F43
S11306D0762F05C0662371F096E8862F70E060E0FF
S11306E02AF09A95660F771F881FDAF7880F969578
S11306F0879597F9089557FD9058440F551F59F061
S11307005F3F71F04795880F97FB991F61F09F3FFA
S113071079F087950895121613061406551FF2CF23
S11307204695F1DF08C0161617061806991FF1CF73
S113073086957105610508940895E894BB2766279A
S11307407727CB0197F908950E94B7030C942804E6
S11307500E941A0438F00E94210420F0952311F01D
S11307600C9411040C94170411240C949E030E94FD
S11307707B0370F3959FC1F3950F50E0551F629F63
S1130780F001729FBB27F00DB11D639FAA27F00DE6
S1130790B11DAA1F649F6627B00DA11D661F829F0D
S11307A02227B00DA11D621F739FB00DA11D621FF2
S11307B0839FA00D611D221F749F3327A00D611D0F
S11307C0231F849F600D211D822F762F6A2F1124F1
S11307D09F5750409AF0F1F088234AF0EE0FFF1F24
S11307E0BB1F661F771F881F91505040A9F79E3F7B
S11307F0510580F00C9411040C949E035F3FE4F3C4
S1130800983ED4F3869577956795B795F795E795D0
S11308109F5FC1F7FE2B880F911D9695879597F9D9
S1130820089597F99F6780E870E060E008959FEF6E
S113083080EC089500240A94161617061806090673
S1130840089500240A941216130614060506089542
S1130850092E0394000C11F4882352F0BB0F40F4CA
S1130860BF2B11F460FF04C06F5F7F4F8F4F9F4F0A
S113087008950F931F93CF93DF93E0916602F09155
S11308806702238121FF1BC08C01D0E0C0E0F80186
S113089081918F016091660270916702DB01189665
S11308A0ED91FC911997882331F00995892B79F3FF
S11308B0DFEFCFEFECCF8AE00995892B19F08FEFAA
S11308C09FEF02C08D2F9C2FDF91CF911F910F912D
S11308D00895AEE0B0E0EFE6F4E00C9456070D891D
S11308E01E8986E08C831A8309838FEF9FE79E839A
S11308F08D83AE01475E5F4F6F89788DCE0101967F
S11309000E94B704EF81F885E00FF11F10822E9644
S1130910E4E00C947207AEE0B0E0E1E9F4E00C949A
S113092056078C01FA0186E08C831A83098377FFCA
S113093002C060E070E8CB0101979E838D83A9011A
S1130940BF01CE0101960E94B7044D815E8157FD1F
S11309500AC02F813885421753070CF49A01F80115
S1130960E20FF31F10822E96E4E00C947207ABE0C2
S1130970B0E0EDEBF4E00C9448076C017B018A01D4
S1130980FC0117821682838181FFCCC1CE010196BE
S11309903C01F6019381F70193FD859193FF8191C9
S11309A07F01882309F4BAC1853239F493FD859116
S11309B093FF81917F01853229F4B60190E00E9472
S11309C0AE06E7CF912C212C312CFFE1F315D8F0A2
S11309D08B3279F038F4803279F08332A1F4232D0C
S11309E020611DC08D3261F0803369F4232D2160B4
S11309F016C0832D8260382EE32DE4603E2E2AC07B
S1130A00F32DF8601DC037FC2DC020ED280F2A30CF
S1130A1040F08E32B9F436FC81C1232D2064322E8D
S1130A2019C036FE06C08AE0989E200D1124922E2D
S1130A3011C0EAE02E9E200D1124222EF32DF06227
S1130A403F2E08C08C3621F4832D8068382E02C0D6
S1130A50883641F4F70193FD859193FF81917F01DD
S1130A608111B3CF982F9F7D9554933028F40C5F58
S1130A701F4F9FE399830DC0833631F0833771F0A4
S1130A80833509F059C021C0F801808189830E5F44
S1130A901F4F88248394912C530113C02801F2E042
S1130AA04F0E511CF801A080B18036FE03C0692DA1
S1130AB070E002C06FEF7FEFC5010E94A3064C01F6
S1130AC08201F32DFF773F2E16C0280122E0420E4B
S1130AD0511CF801A080B18036FE03C0692D70E07E
S1130AE002C06FEF7FEFC5010E9498064C01F32D01
S1130AF0F0683F2E820133FC1BC0822D90E08816E3
S1130B009906B0F4B60180E290E00E94AE062A9401
S1130B10F4CFF50137FC859137FE81915F01B60171
S1130B2090E00E94AE0621102A9421E0821A9108D6
S1130B308114910471F7E8C0843611F0893641F5C7
S1130B40F80137FE07C060817181828193810C5F57
S1130B501F4F08C060817181072E000C880B990B10
S1130B600E5F1F4FF32DFF763F2E97FF09C0909520
S1130B708095709561957F4F8F4F9F4FF0683F2E02
S1130B802AE030E0A3010E94EA06882E861845C0B8
S1130B90853731F4232D2F7EB22E2AE030E025C094
S1130BA0932D997FB92E8F36C1F018F4883579F0DA
S1130BB0B5C0803719F0883721F0B0C0E92FE06163
S1130BC0BE2EB4FE0DC0FB2DF460BF2E09C034FE52
S1130BD00AC0292F2660B22E06C028E030E005C0E6
S1130BE020E130E002C020E132E0F801B7FE07C0A6
S1130BF060817181828193810C5F1F4F06C0608187
S1130C00718180E090E00E5F1F4FA3010E94EA060D
S1130C10882E8618FB2DFF773F2E36FE0DC0232D20
S1130C202E7FA22E891458F434FE0BC032FC09C066
S1130C30832D8E7EA82E05C0B82CA32C03C0B82CFF
S1130C4001C0B92CA4FE0FC0FE01E80DF11D808186
S1130C50803321F49A2D997EA92E09C0A2FE06C0E4
S1130C60B394B39404C08A2D867809F0B394A3FC9A
S1130C7011C0A0FE06C0B21488F4280C922C9B1854
S1130C800EC0B21460F4B60180E290E00E94AE0699
S1130C90B394F7CFB21418F42B1802C0982C212C5B
S1130CA0A4FE10C0B60180E390E00E94AE06A2FE4E
S1130CB017C0A1FC03C088E790E002C088E590E07B
S1130CC0B6010CC08A2D867859F0A1FE02C08BE2D1
S1130CD001C080E2A7FC8DE2B60190E00E94AE065E
S1130CE0891438F4B60180E390E00E94AE069A9429
S1130CF0F7CF8A94F301E80DF11D8081B60190E0ED
S1130D000E94AE068110F5CF222009F442CEB6012E
S1130D1080E290E00E94AE062A94F6CFF601868126
S1130D20978102C08FEF9FEF2B96E2E10C9464074A
S1130D30FC010590615070400110D8F780959095A2
S1130D408E0F9F1F0895FC016150704001900110A7
S1130D50D8F7809590958E0F9F1F08950F931F933A
S1130D60CF93DF93FB01238121FD03C08FEF9FEF1E
S1130D702CC022FF16C04681578124813581421739
S1130D80530744F4A081B1819D012F5F3F4F31830C
S1130D9020838C93268137812F5F3F4F37832683AF
S1130DA014C08B01EC01FB010084F185E02D099551
S1130DB0892BE1F6D80116968D919C91179701968F
S1130DC017969C938E931697CE01DF91CF911F9126
S1130DD00F910895FA01AA27283051F1203181F1A9
S1130DE0E8946F936E7F6E5F7F4F8F4F9F4FAF4F2F
S1130DF0B1E03ED0B4E03CD0670F781F891F9A1F42
S1130E00A11D680F791F8A1F911DA11D6A0F711DF5
S1130E10811D911DA11D20D009F468943F912AE001
S1130E20269F11243019305D3193DEF6CF010895E9
S1130E30462F4770405D4193B3E00FD0C9F7F6CF1A
S1130E40462F4F70405D4A3318F0495D31FD4052E2
S1130E50419302D0A9F7EACFB4E0A6959795879578
S1130E6077956795BA95C9F7009761057105089557
S1130E709B01AC010A2E0694579547953795279503
S1130E80BA95C9F7620F731F841F951FA01D08959B
S1130E902F923F924F925F926F927F928F929F9286
S1130EA0AF92BF92CF92DF92EF92FF920F931F9374
S1130EB0CF93DF93CDB7DEB7CA1BDB0B0FB6F89425
S1130EC0DEBF0FBECDBF09942A88398848885F8465
S1130ED06E847D848C849B84AA84B984C884DF80D6
S1130EE0EE80FD800C811B81AA81B981CE0FD11DBA
S1130EF00FB6F894DEBF0FBECDBFED010895F89490
S1050F00FFCF1D
S1130F024261742064617520726573657420445370
S1130F1231384232302E2E2E0D004B656F2063681D
S1130F22616E2078756F6E672E2E2E0D00546861E7
S1130F32206368616E2E2E2E0D0050686174206845
S1130F4269656E2070726573656E63652070756C79
S1130F527365210D004B484F4E4720706861742021
S1130F626869656E2070726573656E63652070755D
S1130F726C7365210D004B6574207468756320726F
S1130F82657365742C2070726573656E6365203DAC
S1130F922025640D0A0048656C6C6F2066726F6DC3
S1130FA22041726475696E6F210D004368756F6E1E
S1130FB267207472696E6820646F63206E68696565
S1130FC27420646F20445331384232302C206869D3
S1130FD2656E20746869204C4344202849324329B1
S1130FE220766120554152542028415652290D0041
S1130FF2526573657420526573756C743A20310DB1
S11310020054656D703A2025642A43004E68696570
S11310127420646F3A20252E3166202A430D0A007B
S1131022526573657420526573756C743A20300D81
S11310320053656E736F72204572726F72004C6F4B
S1131042693A204B686F6E672074696D2074686119
S1131052792063616D206269656E204453313842A0
S107106232300D0017
S9030000FC
